{
  "contractName": "FPLEscrow",
  "abi": [
    {
      "inputs": [],
      "payable": false,
      "stateMutability": "nonpayable",
      "type": "constructor"
    },
    {
      "payable": false,
      "stateMutability": "nonpayable",
      "type": "fallback"
    },
    {
      "constant": true,
      "inputs": [
        {
          "internalType": "address",
          "name": "",
          "type": "address"
        }
      ],
      "name": "Players",
      "outputs": [
        {
          "internalType": "address payable",
          "name": "playerAddress",
          "type": "address"
        },
        {
          "internalType": "uint256",
          "name": "playerID",
          "type": "uint256"
        }
      ],
      "payable": false,
      "stateMutability": "view",
      "type": "function"
    },
    {
      "constant": true,
      "inputs": [],
      "name": "player1_set",
      "outputs": [
        {
          "internalType": "bool",
          "name": "",
          "type": "bool"
        }
      ],
      "payable": false,
      "stateMutability": "view",
      "type": "function"
    },
    {
      "constant": true,
      "inputs": [],
      "name": "player2_set",
      "outputs": [
        {
          "internalType": "bool",
          "name": "",
          "type": "bool"
        }
      ],
      "payable": false,
      "stateMutability": "view",
      "type": "function"
    },
    {
      "constant": true,
      "inputs": [],
      "name": "playerOneScore",
      "outputs": [
        {
          "internalType": "int256",
          "name": "",
          "type": "int256"
        }
      ],
      "payable": false,
      "stateMutability": "view",
      "type": "function"
    },
    {
      "constant": true,
      "inputs": [],
      "name": "playerTwoScore",
      "outputs": [
        {
          "internalType": "int256",
          "name": "",
          "type": "int256"
        }
      ],
      "payable": false,
      "stateMutability": "view",
      "type": "function"
    },
    {
      "constant": false,
      "inputs": [],
      "name": "toggleContractActive",
      "outputs": [],
      "payable": false,
      "stateMutability": "nonpayable",
      "type": "function"
    },
    {
      "constant": false,
      "inputs": [
        {
          "internalType": "uint256",
          "name": "_playerID",
          "type": "uint256"
        }
      ],
      "name": "deposit",
      "outputs": [],
      "payable": true,
      "stateMutability": "payable",
      "type": "function"
    },
    {
      "constant": false,
      "inputs": [],
      "name": "payout",
      "outputs": [],
      "payable": true,
      "stateMutability": "payable",
      "type": "function"
    },
    {
      "constant": false,
      "inputs": [
        {
          "internalType": "int256",
          "name": "score_1",
          "type": "int256"
        },
        {
          "internalType": "int256",
          "name": "score_2",
          "type": "int256"
        }
      ],
      "name": "setResults",
      "outputs": [],
      "payable": false,
      "stateMutability": "nonpayable",
      "type": "function"
    }
  ],
  "bytecode": "0x60806040526000600a60006101000a81548160ff02191690831515021790555034801561002b57600080fd5b50336000806101000a81548173ffffffffffffffffffffffffffffffffffffffff021916908373ffffffffffffffffffffffffffffffffffffffff1602179055506000600760006101000a81548160ff0219169083151502179055506000600760016101000a81548160ff02191690831515021790555061075f806100b16000396000f3fe6080604052600436106100855760003560e01c80635ae9673f116100595780635ae9673f146101a557806363bd1d4a146101ea57806385475201146101f4578063b6b55f251461021f578063e211d3401461024d57610085565b8062985cc31461009c578063066421aa146100c75780631385d24c146100f65780632bff8dd61461010d575b34801561009157600080fd5b506005600c81905550005b3480156100a857600080fd5b506100b161027c565b6040518082815260200191505060405180910390f35b3480156100d357600080fd5b506100dc610282565b604051808215151515815260200191505060405180910390f35b34801561010257600080fd5b5061010b610295565b005b34801561011957600080fd5b5061015c6004803603602081101561013057600080fd5b81019080803573ffffffffffffffffffffffffffffffffffffffff16906020019092919050505061031a565b604051808373ffffffffffffffffffffffffffffffffffffffff1673ffffffffffffffffffffffffffffffffffffffff1681526020018281526020019250505060405180910390f35b3480156101b157600080fd5b506101e8600480360360408110156101c857600080fd5b81019080803590602001909291908035906020019092919050505061035e565b005b6101f26103d1565b005b34801561020057600080fd5b5061020961055a565b6040518082815260200191505060405180910390f35b61024b6004803603602081101561023557600080fd5b8101908080359060200190929190505050610560565b005b34801561025957600080fd5b50610262610717565b604051808215151515815260200191505060405180910390f35b60025481565b600760009054906101000a900460ff1681565b6000809054906101000a900473ffffffffffffffffffffffffffffffffffffffff1673ffffffffffffffffffffffffffffffffffffffff163373ffffffffffffffffffffffffffffffffffffffff16146102ee57600080fd5b600a60009054906101000a900460ff1615600a60006101000a81548160ff021916908315150217905550565b600b6020528060005260406000206000915090508060000160009054906101000a900473ffffffffffffffffffffffffffffffffffffffff16908060010154905082565b6000809054906101000a900473ffffffffffffffffffffffffffffffffffffffff1673ffffffffffffffffffffffffffffffffffffffff163373ffffffffffffffffffffffffffffffffffffffff16146103b757600080fd5b81600181905550806002819055506103cd6103d1565b5050565b6000809054906101000a900473ffffffffffffffffffffffffffffffffffffffff1673ffffffffffffffffffffffffffffffffffffffff163373ffffffffffffffffffffffffffffffffffffffff161461042a57600080fd5b600a60009054906101000a900460ff161561044457600080fd5b60003073ffffffffffffffffffffffffffffffffffffffff1631905060025460015413156104dd57600360000160009054906101000a900473ffffffffffffffffffffffffffffffffffffffff1673ffffffffffffffffffffffffffffffffffffffff166108fc829081150290604051600060405180830381858888f193505050501580156104d7573d6000803e3d6000fd5b50610557565b600154600254131561055657600560000160009054906101000a900473ffffffffffffffffffffffffffffffffffffffff1673ffffffffffffffffffffffffffffffffffffffff166108fc829081150290604051600060405180830381858888f19350505050158015610554573d6000803e3d6000fd5b505b5b50565b60015481565b600a60009054906101000a900460ff161561057a57600080fd5b600760009054906101000a900460ff1680156105a25750600760019054906101000a900460ff165b156105ac57600080fd5b600760009054906101000a900460ff16156106625760405180604001604052803373ffffffffffffffffffffffffffffffffffffffff16815260200182815250600560008201518160000160006101000a81548173ffffffffffffffffffffffffffffffffffffffff021916908373ffffffffffffffffffffffffffffffffffffffff160217905550602082015181600101559050506001600760016101000a81548160ff021916908315150217905550610714565b600760009054906101000a900460ff166107135760405180604001604052803373ffffffffffffffffffffffffffffffffffffffff16815260200182815250600360008201518160000160006101000a81548173ffffffffffffffffffffffffffffffffffffffff021916908373ffffffffffffffffffffffffffffffffffffffff160217905550602082015181600101559050506001600760006101000a81548160ff0219169083151502179055505b5b50565b600760019054906101000a900460ff168156fea265627a7a72315820d2b71abce411017acba8d61b4ac0c2cd39b4161b29f966e0b4cdc03c366c0a9264736f6c634300050c0032",
  "source": "pragma solidity ^0.5.0;\r\n\r\ncontract FPLEscrow {\r\n\r\n    address arbiter;\r\n    int256 public playerOneScore;\r\n    int256 public playerTwoScore;\r\n    PlayerInfo player1;\r\n    PlayerInfo player2;\r\n    bool public player1_set;\r\n    bool public player2_set;\r\n    uint256 playerID1; // ID of the player on the fantasy football site\r\n    uint256 playerID2;\r\n    bool private stopped = false; //Bool for emergency switch\r\n\r\n    struct PlayerInfo {\r\n        address payable playerAddress;\r\n        uint256 playerID;\r\n    }\r\n\r\n    mapping(address => PlayerInfo) public Players;\r\n\r\n    modifier onlyArbiter() { // Modifier so that only me (the arbiter) will be able to input results and initiate withdrawal to the winning player's address. \r\n        require(msg.sender == arbiter);\r\n        _;\r\n    }\r\n\r\n    function toggleContractActive() public onlyArbiter { //Emergency switch function\r\n        stopped = !stopped;\r\n    }\r\n\r\n    modifier stopInEmergency { \r\n        //if (!stopped)\r\n        require(!stopped);\r\n        _; \r\n    }\r\n\r\n    constructor() public {\r\n        arbiter = msg.sender;\r\n        player1_set = false;\r\n        player2_set = false;\r\n    }\r\n\r\n    function deposit(uint256 _playerID) public payable stopInEmergency {\r\n\r\n        if (player1_set && player2_set) {   // prevent further deposits after the second player\r\n            revert();\r\n        }\r\n        if (player1_set) {\r\n            player2 = PlayerInfo(msg.sender, _playerID);\r\n            player2_set = true;\r\n        } else if (!player1_set) {\r\n            player1 = PlayerInfo(msg.sender, _playerID);\r\n            player1_set = true;\r\n        }\r\n    }\r\n\r\n    function payout() public payable onlyArbiter stopInEmergency {\r\n        uint256 payment = address(this).balance;\r\n\r\n        if (playerOneScore > playerTwoScore) {\r\n            player1.playerAddress.transfer(payment);  // Need to send the funds to player 1's address\r\n        } else if (playerTwoScore > playerOneScore) {\r\n            player2.playerAddress.transfer(payment); // Need to send the funds to player 2's address\r\n        }\r\n    }\r\n\r\n    function setResults(int256 score_1, int256 score_2) public onlyArbiter {\r\n        playerOneScore = score_1; //Scores will be checked by the arbiter on the official FPL site and input into the smart contract. An additional 1 point will be awarded if there is a draw (Fantasy PL tiebreak rules apply)\r\n        playerTwoScore = score_2; \r\n        payout();\r\n    }\r\n\r\n\r\n\r\n    function() external { //fallback function - stops random ether from being sent by not having \"payable\" modifier\r\n        v = 5; // Just something random\r\n    }\r\n\r\n    uint v;\r\n\r\n}\r\n",
  "sourcePath": "D:/Programming/ConsenSys Academy/Final Project fpl/contracts/FPLEscrow.sol",
  "compiler": {
    "name": "solc",
    "version": "0.5.12+commit.7709ece9.Emscripten.clang"
  },
  "schemaVersion": "3.0.19",
  "updatedAt": "2020-01-27T16:37:33.004Z",
  "networkType": "ethereum",
  "devdoc": {
    "methods": {}
  },
  "userdoc": {
    "methods": {}
  }
}