{
  "contractName": "FPLEscrow",
  "abi": [
    {
      "inputs": [],
      "payable": false,
      "stateMutability": "nonpayable",
      "type": "constructor"
    },
    {
      "payable": false,
      "stateMutability": "nonpayable",
      "type": "fallback"
    },
    {
      "constant": true,
      "inputs": [
        {
          "internalType": "address",
          "name": "",
          "type": "address"
        }
      ],
      "name": "Players",
      "outputs": [
        {
          "internalType": "address payable",
          "name": "playerAddress",
          "type": "address"
        },
        {
          "internalType": "uint256",
          "name": "playerID",
          "type": "uint256"
        }
      ],
      "payable": false,
      "stateMutability": "view",
      "type": "function"
    },
    {
      "constant": true,
      "inputs": [],
      "name": "player1_set",
      "outputs": [
        {
          "internalType": "bool",
          "name": "",
          "type": "bool"
        }
      ],
      "payable": false,
      "stateMutability": "view",
      "type": "function"
    },
    {
      "constant": true,
      "inputs": [],
      "name": "player2_set",
      "outputs": [
        {
          "internalType": "bool",
          "name": "",
          "type": "bool"
        }
      ],
      "payable": false,
      "stateMutability": "view",
      "type": "function"
    },
    {
      "constant": true,
      "inputs": [],
      "name": "playerOneScore",
      "outputs": [
        {
          "internalType": "int256",
          "name": "",
          "type": "int256"
        }
      ],
      "payable": false,
      "stateMutability": "view",
      "type": "function"
    },
    {
      "constant": true,
      "inputs": [],
      "name": "playerTwoScore",
      "outputs": [
        {
          "internalType": "int256",
          "name": "",
          "type": "int256"
        }
      ],
      "payable": false,
      "stateMutability": "view",
      "type": "function"
    },
    {
      "constant": true,
      "inputs": [],
      "name": "safeMathTestTotal",
      "outputs": [
        {
          "internalType": "uint256",
          "name": "",
          "type": "uint256"
        }
      ],
      "payable": false,
      "stateMutability": "view",
      "type": "function"
    },
    {
      "constant": false,
      "inputs": [],
      "name": "toggleContractActive",
      "outputs": [],
      "payable": false,
      "stateMutability": "nonpayable",
      "type": "function"
    },
    {
      "constant": false,
      "inputs": [
        {
          "internalType": "uint256",
          "name": "_playerID",
          "type": "uint256"
        }
      ],
      "name": "deposit",
      "outputs": [],
      "payable": true,
      "stateMutability": "payable",
      "type": "function"
    },
    {
      "constant": false,
      "inputs": [],
      "name": "payout",
      "outputs": [],
      "payable": true,
      "stateMutability": "payable",
      "type": "function"
    },
    {
      "constant": false,
      "inputs": [
        {
          "internalType": "int256",
          "name": "score_1",
          "type": "int256"
        },
        {
          "internalType": "int256",
          "name": "score_2",
          "type": "int256"
        }
      ],
      "name": "setResults",
      "outputs": [],
      "payable": false,
      "stateMutability": "nonpayable",
      "type": "function"
    },
    {
      "constant": false,
      "inputs": [],
      "name": "resetPlayers",
      "outputs": [],
      "payable": false,
      "stateMutability": "nonpayable",
      "type": "function"
    },
    {
      "constant": false,
      "inputs": [
        {
          "internalType": "uint256",
          "name": "var1",
          "type": "uint256"
        },
        {
          "internalType": "uint256",
          "name": "var2",
          "type": "uint256"
        }
      ],
      "name": "testLibrary",
      "outputs": [],
      "payable": false,
      "stateMutability": "nonpayable",
      "type": "function"
    }
  ],
  "bytecode": "0x60806040526000600a60006101000a81548160ff02191690831515021790555034801561002b57600080fd5b50336000806101000a81548173ffffffffffffffffffffffffffffffffffffffff021916908373ffffffffffffffffffffffffffffffffffffffff1602179055506000600760006101000a81548160ff0219169083151502179055506000600760016101000a81548160ff021916908315150217905550610965806100b16000396000f3fe6080604052600436106100a65760003560e01c806362214c031161006457806362214c031461025057806363bd1d4a146102675780638547520114610271578063b6b55f251461029c578063e211d340146102ca578063eca993b2146102f9576100a6565b8062985cc3146100bd578063066421aa146100e85780631385d24c146101175780632bff8dd61461012e57806334dc925b146101c65780635ae9673f1461020b575b3480156100b257600080fd5b506005600d81905550005b3480156100c957600080fd5b506100d2610324565b6040518082815260200191505060405180910390f35b3480156100f457600080fd5b506100fd61032a565b604051808215151515815260200191505060405180910390f35b34801561012357600080fd5b5061012c61033d565b005b34801561013a57600080fd5b5061017d6004803603602081101561015157600080fd5b81019080803573ffffffffffffffffffffffffffffffffffffffff1690602001909291905050506103c2565b604051808373ffffffffffffffffffffffffffffffffffffffff1673ffffffffffffffffffffffffffffffffffffffff1681526020018281526020019250505060405180910390f35b3480156101d257600080fd5b50610209600480360360408110156101e957600080fd5b810190808035906020019092919080359060200190929190505050610406565b005b34801561021757600080fd5b5061024e6004803603604081101561022e57600080fd5b810190808035906020019092919080359060200190929190505050610423565b005b34801561025c57600080fd5b50610265610496565b005b61026f610541565b005b34801561027d57600080fd5b506102866106d2565b6040518082815260200191505060405180910390f35b6102c8600480360360208110156102b257600080fd5b81019080803590602001909291905050506106d8565b005b3480156102d657600080fd5b506102df61088f565b604051808215151515815260200191505060405180910390f35b34801561030557600080fd5b5061030e6108a2565b6040518082815260200191505060405180910390f35b60025481565b600760009054906101000a900460ff1681565b6000809054906101000a900473ffffffffffffffffffffffffffffffffffffffff1673ffffffffffffffffffffffffffffffffffffffff163373ffffffffffffffffffffffffffffffffffffffff161461039657600080fd5b600a60009054906101000a900460ff1615600a60006101000a81548160ff021916908315150217905550565b600b6020528060005260406000206000915090508060000160009054906101000a900473ffffffffffffffffffffffffffffffffffffffff16908060010154905082565b61041981836108a890919063ffffffff16565b600c819055505050565b6000809054906101000a900473ffffffffffffffffffffffffffffffffffffffff1673ffffffffffffffffffffffffffffffffffffffff163373ffffffffffffffffffffffffffffffffffffffff161461047c57600080fd5b8160018190555080600281905550610492610541565b5050565b6000809054906101000a900473ffffffffffffffffffffffffffffffffffffffff1673ffffffffffffffffffffffffffffffffffffffff163373ffffffffffffffffffffffffffffffffffffffff16146104ef57600080fd5b600a60009054906101000a900460ff161561050957600080fd5b6000600760006101000a81548160ff0219169083151502179055506000600760016101000a81548160ff021916908315150217905550565b6000809054906101000a900473ffffffffffffffffffffffffffffffffffffffff1673ffffffffffffffffffffffffffffffffffffffff163373ffffffffffffffffffffffffffffffffffffffff161461059a57600080fd5b600a60009054906101000a900460ff16156105b457600080fd5b60003073ffffffffffffffffffffffffffffffffffffffff16319050600254600154131561064d57600360000160009054906101000a900473ffffffffffffffffffffffffffffffffffffffff1673ffffffffffffffffffffffffffffffffffffffff166108fc829081150290604051600060405180830381858888f19350505050158015610647573d6000803e3d6000fd5b506106c7565b60015460025413156106c657600560000160009054906101000a900473ffffffffffffffffffffffffffffffffffffffff1673ffffffffffffffffffffffffffffffffffffffff166108fc829081150290604051600060405180830381858888f193505050501580156106c4573d6000803e3d6000fd5b505b5b6106cf610496565b50565b60015481565b600a60009054906101000a900460ff16156106f257600080fd5b600760009054906101000a900460ff16801561071a5750600760019054906101000a900460ff165b1561072457600080fd5b600760009054906101000a900460ff16156107da5760405180604001604052803373ffffffffffffffffffffffffffffffffffffffff16815260200182815250600560008201518160000160006101000a81548173ffffffffffffffffffffffffffffffffffffffff021916908373ffffffffffffffffffffffffffffffffffffffff160217905550602082015181600101559050506001600760016101000a81548160ff02191690831515021790555061088c565b600760009054906101000a900460ff1661088b5760405180604001604052803373ffffffffffffffffffffffffffffffffffffffff16815260200182815250600360008201518160000160006101000a81548173ffffffffffffffffffffffffffffffffffffffff021916908373ffffffffffffffffffffffffffffffffffffffff160217905550602082015181600101559050506001600760006101000a81548160ff0219169083151502179055505b5b50565b600760019054906101000a900460ff1681565b600c5481565b600080828401905083811015610926576040517f08c379a000000000000000000000000000000000000000000000000000000000815260040180806020018281038252601b8152602001807f536166654d6174683a206164646974696f6e206f766572666c6f77000000000081525060200191505060405180910390fd5b809150509291505056fea265627a7a72315820d47780610c4b916ce8c3fae4e02e69a627b658d2268ddea37cfb019a780c991064736f6c634300050c0032",
  "source": "pragma solidity ^0.5.0;\r\n\r\nimport \"./SafeMath.sol\";\r\n\r\ncontract FPLEscrow {\r\n    using SafeMath for uint256;\r\n\r\n    address arbiter;\r\n    int256 public playerOneScore;\r\n    int256 public playerTwoScore;\r\n    PlayerInfo player1;\r\n    PlayerInfo player2;\r\n    bool public player1_set;\r\n    bool public player2_set;\r\n    uint256 playerID1; // ID of the player on the fantasy football site\r\n    uint256 playerID2;\r\n    bool private stopped = false; //Bool for emergency switch\r\n\r\n    struct PlayerInfo {\r\n        address payable playerAddress;\r\n        uint256 playerID;\r\n\r\n    }\r\n\r\n    mapping(address => PlayerInfo) public Players;\r\n\r\n    modifier onlyArbiter() { // Modifier so that only me (the arbiter) will be able to input results and initiate withdrawal to the winning player's address. \r\n        require(msg.sender == arbiter);\r\n        _;\r\n    }\r\n\r\n    function toggleContractActive() public onlyArbiter { //Emergency switch function\r\n        stopped = !stopped;\r\n    }\r\n\r\n    modifier stopInEmergency { \r\n        //if (!stopped)\r\n        require(!stopped);\r\n        _;\r\n    }\r\n\r\n    constructor() public {\r\n        arbiter = msg.sender;\r\n        player1_set = false;\r\n        player2_set = false;\r\n    }\r\n\r\n    function deposit(uint256 _playerID) public payable stopInEmergency {\r\n\r\n        if (player1_set && player2_set) {   // prevent further deposits after the second player\r\n            revert();\r\n        }\r\n        if (player1_set) {\r\n            player2 = PlayerInfo(msg.sender, _playerID);\r\n            player2_set = true;\r\n        } else if (!player1_set) {\r\n            player1 = PlayerInfo(msg.sender, _playerID);\r\n            player1_set = true;\r\n        }\r\n    }\r\n\r\n    function payout() public payable onlyArbiter stopInEmergency {\r\n        uint256 payment = address(this).balance;\r\n\r\n        if (playerOneScore > playerTwoScore) {\r\n            player1.playerAddress.transfer(payment);  // Need to send the funds to player 1's address\r\n        } else if (playerTwoScore > playerOneScore) {\r\n            player2.playerAddress.transfer(payment); // Need to send the funds to player 2's address\r\n        }\r\n        resetPlayers();\r\n    }\r\n\r\n    function setResults(int256 score_1, int256 score_2) public onlyArbiter {\r\n        playerOneScore = score_1; //Scores will be checked by the arbiter on the official FPL site and input into the smart contract. An additional 1 point will be awarded if there is a draw (Fantasy PL tiebreak rules apply)\r\n        playerTwoScore = score_2; \r\n        payout();\r\n    }\r\n\r\n    function resetPlayers() public onlyArbiter stopInEmergency {\r\n        player1_set = false;\r\n        player2_set = false;\r\n    }\r\n\r\n    uint256 public safeMathTestTotal; // Testing the SafeMath library even though we don't need it for this first version of the dApp.\r\n\r\n    function testLibrary(uint256 var1, uint256 var2) public {\r\n        safeMathTestTotal = var1.add(var2); // Testing the SafeMath library even though we don't need it for this first version of the dApp.\r\n    }\r\n\r\n\r\n    function() external { //fallback function - stops random ether from being sent by not having \"payable\" modifier\r\n        v = 5; // Just something random\r\n    }\r\n\r\n    uint v;\r\n\r\n}\r\n",
  "sourcePath": "D:/Programming/ConsenSys Academy/Final Project fpl/contracts/FPLEscrow.sol",
  "compiler": {
    "name": "solc",
    "version": "0.5.12+commit.7709ece9.Emscripten.clang"
  },
  "schemaVersion": "3.0.19",
  "updatedAt": "2020-01-29T13:03:11.112Z",
  "devdoc": {
    "methods": {}
  },
  "userdoc": {
    "methods": {}
  }
}