{
  "contractName": "FPLEscrow",
  "abi": [
    {
      "inputs": [],
      "payable": false,
      "stateMutability": "nonpayable",
      "type": "constructor"
    },
    {
      "constant": true,
      "inputs": [
        {
          "internalType": "address",
          "name": "",
          "type": "address"
        }
      ],
      "name": "Players",
      "outputs": [
        {
          "internalType": "address payable",
          "name": "playerAddress",
          "type": "address"
        },
        {
          "internalType": "uint256",
          "name": "playerID",
          "type": "uint256"
        }
      ],
      "payable": false,
      "stateMutability": "view",
      "type": "function"
    },
    {
      "constant": false,
      "inputs": [
        {
          "internalType": "uint256",
          "name": "_playerID",
          "type": "uint256"
        }
      ],
      "name": "deposit",
      "outputs": [],
      "payable": true,
      "stateMutability": "payable",
      "type": "function"
    },
    {
      "constant": false,
      "inputs": [],
      "name": "payout",
      "outputs": [],
      "payable": true,
      "stateMutability": "payable",
      "type": "function"
    },
    {
      "constant": false,
      "inputs": [
        {
          "internalType": "int256",
          "name": "score_1",
          "type": "int256"
        },
        {
          "internalType": "int256",
          "name": "score_2",
          "type": "int256"
        }
      ],
      "name": "setResults",
      "outputs": [],
      "payable": false,
      "stateMutability": "nonpayable",
      "type": "function"
    }
  ],
  "bytecode": "0x60806040526000600760006101000a81548160ff0219169083151502179055506000600760016101000a81548160ff02191690831515021790555034801561004657600080fd5b50336000806101000a81548173ffffffffffffffffffffffffffffffffffffffff021916908373ffffffffffffffffffffffffffffffffffffffff160217905550610552806100966000396000f3fe60806040526004361061003f5760003560e01c80632bff8dd6146100445780635ae9673f146100dc57806363bd1d4a14610121578063b6b55f251461012b575b600080fd5b34801561005057600080fd5b506100936004803603602081101561006757600080fd5b81019080803573ffffffffffffffffffffffffffffffffffffffff169060200190929190505050610159565b604051808373ffffffffffffffffffffffffffffffffffffffff1673ffffffffffffffffffffffffffffffffffffffff1681526020018281526020019250505060405180910390f35b3480156100e857600080fd5b5061011f600480360360408110156100ff57600080fd5b81019080803590602001909291908035906020019092919050505061019d565b005b610129610210565b005b6101576004803603602081101561014157600080fd5b810190808035906020019092919050505061037f565b005b600a6020528060005260406000206000915090508060000160009054906101000a900473ffffffffffffffffffffffffffffffffffffffff16908060010154905082565b6000809054906101000a900473ffffffffffffffffffffffffffffffffffffffff1673ffffffffffffffffffffffffffffffffffffffff163373ffffffffffffffffffffffffffffffffffffffff16146101f657600080fd5b816001819055508060028190555061020c610210565b5050565b6000809054906101000a900473ffffffffffffffffffffffffffffffffffffffff1673ffffffffffffffffffffffffffffffffffffffff163373ffffffffffffffffffffffffffffffffffffffff161461026957600080fd5b60003073ffffffffffffffffffffffffffffffffffffffff16319050600254600154131561030257600360000160009054906101000a900473ffffffffffffffffffffffffffffffffffffffff1673ffffffffffffffffffffffffffffffffffffffff166108fc829081150290604051600060405180830381858888f193505050501580156102fc573d6000803e3d6000fd5b5061037c565b600154600254131561037b57600560000160009054906101000a900473ffffffffffffffffffffffffffffffffffffffff1673ffffffffffffffffffffffffffffffffffffffff166108fc829081150290604051600060405180830381858888f19350505050158015610379573d6000803e3d6000fd5b505b5b50565b600760009054906101000a900460ff1680156103a75750600760019054906101000a900460ff165b156103b15761051a565b600760009054906101000a900460ff16156104675760405180604001604052803373ffffffffffffffffffffffffffffffffffffffff16815260200182815250600560008201518160000160006101000a81548173ffffffffffffffffffffffffffffffffffffffff021916908373ffffffffffffffffffffffffffffffffffffffff160217905550602082015181600101559050506001600760016101000a81548160ff021916908315150217905550610519565b600760009054906101000a900460ff166105185760405180604001604052803373ffffffffffffffffffffffffffffffffffffffff16815260200182815250600360008201518160000160006101000a81548173ffffffffffffffffffffffffffffffffffffffff021916908373ffffffffffffffffffffffffffffffffffffffff160217905550602082015181600101559050506001600760006101000a81548160ff0219169083151502179055505b5b5b5056fea265627a7a72315820bbfc3a857dad0daa895293eb88838efbf71786c62859cada73a3da95d278ab2e64736f6c634300050c0032",
  "source": "pragma solidity ^0.5.0;\r\n\r\ncontract FPLEscrow {\r\n\r\n    address arbiter;\r\n    int256 playerOneScore;\r\n    int256 playerTwoScore;\r\n    PlayerInfo player1;\r\n    PlayerInfo player2;\r\n    bool player1_set = false;\r\n    bool player2_set = false;\r\n    uint256 playerID1; // ID of the player on the fantasy football site\r\n    uint256 playerID2;\r\n\r\n    struct PlayerInfo {\r\n        address payable playerAddress;\r\n        uint256 playerID;\r\n\r\n    }\r\n\r\n    mapping(address => PlayerInfo) public Players;\r\n\r\n    modifier onlyArbiter() { // Modifier so that only me (the arbiter) will be able to input results and initiate withdrawal to the winning player's address. \r\n        require(msg.sender == arbiter);\r\n        _;\r\n    }\r\n\r\n    constructor() public {\r\n        arbiter = msg.sender;\r\n    }\r\n\r\n    function deposit(uint256 _playerID) public payable {\r\n        //TODO - ask mentor what happens if a third player deposits money and we do nothing with it - should just be sent along with the rest to the winner\r\n\r\n        // prevent further deposits after the second player\r\n        if (player1_set && player2_set) {   // require(msg.value % 2 == 0, \"Even value required.\");\r\n            return;\r\n        }\r\n        if (player1_set) {\r\n            player2 = PlayerInfo(msg.sender, _playerID);\r\n            player2_set = true;\r\n        } else if (!player1_set) {\r\n            player1 = PlayerInfo(msg.sender, _playerID);\r\n            player1_set = true;\r\n        }\r\n    }\r\n\r\n    function payout() public payable onlyArbiter {\r\n        uint256 payment = address(this).balance;\r\n\r\n        if (playerOneScore > playerTwoScore) {\r\n            player1.playerAddress.transfer(payment);  // Need to send the funds to player 1's address\r\n        } else if (playerTwoScore > playerOneScore) {\r\n            player2.playerAddress.transfer(payment); // Need to send the funds to player 2's address\r\n        }\r\n    }\r\n\r\n    function setResults(int256 score_1, int256 score_2) public onlyArbiter {\r\n        playerOneScore = score_1; //Here these scores will be checked by the arbiter from the official site and input. An additional 1 pt will be awarded if there is a draw to the player with a better tiebreak record (Fantasy PL rules apply)\r\n        playerTwoScore = score_2;\r\n        payout();\r\n    }\r\n\r\n\r\n    //fallback function - unnamed function at bottom\r\n\r\n    //emergency switch - boolean 2nd modifier, only arbiter can turn it on\r\n\r\n    //Tests - see notes\r\n\r\n}",
  "sourcePath": "D:/Programming/ConsenSys Academy/Final Project fpl/contracts/FPLEscrow.sol",
  "compiler": {
    "name": "solc",
    "version": "0.5.12+commit.7709ece9.Emscripten.clang"
  },
  "schemaVersion": "3.0.19",
  "updatedAt": "2020-01-22T16:30:48.426Z",
  "networkType": "ethereum",
  "devdoc": {
    "methods": {}
  },
  "userdoc": {
    "methods": {}
  }
}