{
  "contractName": "FPLEscrow",
  "abi": [
    {
      "inputs": [],
      "payable": false,
      "stateMutability": "nonpayable",
      "type": "constructor"
    },
    {
      "payable": false,
      "stateMutability": "nonpayable",
      "type": "fallback"
    },
    {
      "constant": true,
      "inputs": [
        {
          "internalType": "address",
          "name": "",
          "type": "address"
        }
      ],
      "name": "Players",
      "outputs": [
        {
          "internalType": "address payable",
          "name": "playerAddress",
          "type": "address"
        },
        {
          "internalType": "uint256",
          "name": "playerID",
          "type": "uint256"
        }
      ],
      "payable": false,
      "stateMutability": "view",
      "type": "function"
    },
    {
      "constant": true,
      "inputs": [],
      "name": "player1_set",
      "outputs": [
        {
          "internalType": "bool",
          "name": "",
          "type": "bool"
        }
      ],
      "payable": false,
      "stateMutability": "view",
      "type": "function"
    },
    {
      "constant": true,
      "inputs": [],
      "name": "player2_set",
      "outputs": [
        {
          "internalType": "bool",
          "name": "",
          "type": "bool"
        }
      ],
      "payable": false,
      "stateMutability": "view",
      "type": "function"
    },
    {
      "constant": true,
      "inputs": [],
      "name": "playerOneScore",
      "outputs": [
        {
          "internalType": "int256",
          "name": "",
          "type": "int256"
        }
      ],
      "payable": false,
      "stateMutability": "view",
      "type": "function"
    },
    {
      "constant": true,
      "inputs": [],
      "name": "playerTwoScore",
      "outputs": [
        {
          "internalType": "int256",
          "name": "",
          "type": "int256"
        }
      ],
      "payable": false,
      "stateMutability": "view",
      "type": "function"
    },
    {
      "constant": true,
      "inputs": [],
      "name": "safeMathTestTotal",
      "outputs": [
        {
          "internalType": "uint256",
          "name": "",
          "type": "uint256"
        }
      ],
      "payable": false,
      "stateMutability": "view",
      "type": "function"
    },
    {
      "constant": false,
      "inputs": [],
      "name": "toggleContractActive",
      "outputs": [],
      "payable": false,
      "stateMutability": "nonpayable",
      "type": "function"
    },
    {
      "constant": false,
      "inputs": [
        {
          "internalType": "uint256",
          "name": "_playerID",
          "type": "uint256"
        }
      ],
      "name": "deposit",
      "outputs": [],
      "payable": true,
      "stateMutability": "payable",
      "type": "function"
    },
    {
      "constant": false,
      "inputs": [],
      "name": "payout",
      "outputs": [],
      "payable": true,
      "stateMutability": "payable",
      "type": "function"
    },
    {
      "constant": false,
      "inputs": [
        {
          "internalType": "int256",
          "name": "score_1",
          "type": "int256"
        },
        {
          "internalType": "int256",
          "name": "score_2",
          "type": "int256"
        }
      ],
      "name": "setResults",
      "outputs": [],
      "payable": false,
      "stateMutability": "nonpayable",
      "type": "function"
    },
    {
      "constant": false,
      "inputs": [],
      "name": "resetPlayers",
      "outputs": [],
      "payable": false,
      "stateMutability": "nonpayable",
      "type": "function"
    },
    {
      "constant": true,
      "inputs": [],
      "name": "getPlayer1Status",
      "outputs": [
        {
          "internalType": "bool",
          "name": "",
          "type": "bool"
        }
      ],
      "payable": false,
      "stateMutability": "view",
      "type": "function"
    },
    {
      "constant": true,
      "inputs": [],
      "name": "getPlayer2Status",
      "outputs": [
        {
          "internalType": "bool",
          "name": "",
          "type": "bool"
        }
      ],
      "payable": false,
      "stateMutability": "view",
      "type": "function"
    },
    {
      "constant": true,
      "inputs": [],
      "name": "getPlayer1ID",
      "outputs": [
        {
          "internalType": "uint256",
          "name": "",
          "type": "uint256"
        }
      ],
      "payable": false,
      "stateMutability": "view",
      "type": "function"
    },
    {
      "constant": true,
      "inputs": [],
      "name": "getPlayer2ID",
      "outputs": [
        {
          "internalType": "uint256",
          "name": "",
          "type": "uint256"
        }
      ],
      "payable": false,
      "stateMutability": "view",
      "type": "function"
    },
    {
      "constant": false,
      "inputs": [
        {
          "internalType": "uint256",
          "name": "var1",
          "type": "uint256"
        },
        {
          "internalType": "uint256",
          "name": "var2",
          "type": "uint256"
        }
      ],
      "name": "testLibrary",
      "outputs": [],
      "payable": false,
      "stateMutability": "nonpayable",
      "type": "function"
    }
  ],
  "bytecode": "0x60806040526000600a60006101000a81548160ff02191690831515021790555034801561002b57600080fd5b50336000806101000a81548173ffffffffffffffffffffffffffffffffffffffff021916908373ffffffffffffffffffffffffffffffffffffffff1602179055506000600760006101000a81548160ff0219169083151502179055506000600760016101000a81548160ff021916908315150217905550610b5f806100b16000396000f3fe6080604052600436106100f25760003560e01c806362214c031161008a578063df87203911610059578063df87203914610370578063e211d3401461039b578063eca993b2146103ca578063f3180e78146103f5576100f2565b806362214c03146102f657806363bd1d4a1461030d5780638547520114610317578063b6b55f2514610342576100f2565b806334dc925b116100c657806334dc925b146102125780634f21427e146102575780635900a532146102825780635ae9673f146102b1576100f2565b8062985cc314610109578063066421aa146101345780631385d24c146101635780632bff8dd61461017a575b3480156100fe57600080fd5b506005600d81905550005b34801561011557600080fd5b5061011e610424565b6040518082815260200191505060405180910390f35b34801561014057600080fd5b5061014961042a565b604051808215151515815260200191505060405180910390f35b34801561016f57600080fd5b5061017861043d565b005b34801561018657600080fd5b506101c96004803603602081101561019d57600080fd5b81019080803573ffffffffffffffffffffffffffffffffffffffff1690602001909291905050506104c2565b604051808373ffffffffffffffffffffffffffffffffffffffff1673ffffffffffffffffffffffffffffffffffffffff1681526020018281526020019250505060405180910390f35b34801561021e57600080fd5b506102556004803603604081101561023557600080fd5b810190808035906020019092919080359060200190929190505050610506565b005b34801561026357600080fd5b5061026c610523565b6040518082815260200191505060405180910390f35b34801561028e57600080fd5b50610297610589565b604051808215151515815260200191505060405180910390f35b3480156102bd57600080fd5b506102f4600480360360408110156102d457600080fd5b8101908080359060200190929190803590602001909291905050506105a0565b005b34801561030257600080fd5b5061030b610613565b005b6103156106be565b005b34801561032357600080fd5b5061032c61084f565b6040518082815260200191505060405180910390f35b61036e6004803603602081101561035857600080fd5b8101908080359060200190929190505050610855565b005b34801561037c57600080fd5b50610385610a0c565b6040518082815260200191505060405180910390f35b3480156103a757600080fd5b506103b0610a72565b604051808215151515815260200191505060405180910390f35b3480156103d657600080fd5b506103df610a85565b6040518082815260200191505060405180910390f35b34801561040157600080fd5b5061040a610a8b565b604051808215151515815260200191505060405180910390f35b60025481565b600760009054906101000a900460ff1681565b6000809054906101000a900473ffffffffffffffffffffffffffffffffffffffff1673ffffffffffffffffffffffffffffffffffffffff163373ffffffffffffffffffffffffffffffffffffffff161461049657600080fd5b600a60009054906101000a900460ff1615600a60006101000a81548160ff021916908315150217905550565b600b6020528060005260406000206000915090508060000160009054906101000a900473ffffffffffffffffffffffffffffffffffffffff16908060010154905082565b6105198183610aa290919063ffffffff16565b600c819055505050565b60008060009054906101000a900473ffffffffffffffffffffffffffffffffffffffff1673ffffffffffffffffffffffffffffffffffffffff163373ffffffffffffffffffffffffffffffffffffffff161461057e57600080fd5b600360010154905090565b6000600760009054906101000a900460ff16905090565b6000809054906101000a900473ffffffffffffffffffffffffffffffffffffffff1673ffffffffffffffffffffffffffffffffffffffff163373ffffffffffffffffffffffffffffffffffffffff16146105f957600080fd5b816001819055508060028190555061060f6106be565b5050565b6000809054906101000a900473ffffffffffffffffffffffffffffffffffffffff1673ffffffffffffffffffffffffffffffffffffffff163373ffffffffffffffffffffffffffffffffffffffff161461066c57600080fd5b600a60009054906101000a900460ff161561068657600080fd5b6000600760006101000a81548160ff0219169083151502179055506000600760016101000a81548160ff021916908315150217905550565b6000809054906101000a900473ffffffffffffffffffffffffffffffffffffffff1673ffffffffffffffffffffffffffffffffffffffff163373ffffffffffffffffffffffffffffffffffffffff161461071757600080fd5b600a60009054906101000a900460ff161561073157600080fd5b60003073ffffffffffffffffffffffffffffffffffffffff1631905060025460015413156107ca57600360000160009054906101000a900473ffffffffffffffffffffffffffffffffffffffff1673ffffffffffffffffffffffffffffffffffffffff166108fc829081150290604051600060405180830381858888f193505050501580156107c4573d6000803e3d6000fd5b50610844565b600154600254131561084357600560000160009054906101000a900473ffffffffffffffffffffffffffffffffffffffff1673ffffffffffffffffffffffffffffffffffffffff166108fc829081150290604051600060405180830381858888f19350505050158015610841573d6000803e3d6000fd5b505b5b61084c610613565b50565b60015481565b600a60009054906101000a900460ff161561086f57600080fd5b600760009054906101000a900460ff1680156108975750600760019054906101000a900460ff165b156108a157600080fd5b600760009054906101000a900460ff16156109575760405180604001604052803373ffffffffffffffffffffffffffffffffffffffff16815260200182815250600560008201518160000160006101000a81548173ffffffffffffffffffffffffffffffffffffffff021916908373ffffffffffffffffffffffffffffffffffffffff160217905550602082015181600101559050506001600760016101000a81548160ff021916908315150217905550610a09565b600760009054906101000a900460ff16610a085760405180604001604052803373ffffffffffffffffffffffffffffffffffffffff16815260200182815250600360008201518160000160006101000a81548173ffffffffffffffffffffffffffffffffffffffff021916908373ffffffffffffffffffffffffffffffffffffffff160217905550602082015181600101559050506001600760006101000a81548160ff0219169083151502179055505b5b50565b60008060009054906101000a900473ffffffffffffffffffffffffffffffffffffffff1673ffffffffffffffffffffffffffffffffffffffff163373ffffffffffffffffffffffffffffffffffffffff1614610a6757600080fd5b600560010154905090565b600760019054906101000a900460ff1681565b600c5481565b6000600760019054906101000a900460ff16905090565b600080828401905083811015610b20576040517f08c379a000000000000000000000000000000000000000000000000000000000815260040180806020018281038252601b8152602001807f536166654d6174683a206164646974696f6e206f766572666c6f77000000000081525060200191505060405180910390fd5b809150509291505056fea265627a7a723158205fcc89ea12d864a372492c10bdf051028b18ec86500b37d5adabcd1e8f09ac5164736f6c634300050c0032",
  "source": "pragma solidity ^0.5.0;\r\n\r\n/// @title Fantasy Premier League Head to Head Cryptocurrency Game\r\n/// @author Valentin Dimitrov\r\n/// @notice Only a very basic version of the game is implemented at this time\r\n\r\nimport \"./SafeMath.sol\";\r\n\r\ncontract FPLEscrow {\r\n/// @dev Testing the SafeMath library even though we don't need it for this first version of the dApp.\r\n    using SafeMath for uint256;\r\n\r\n    address arbiter;\r\n/// @notice Scores of the two players - necessary to find out who wins\r\n/// @dev int instead of uint because a player can theoretically have a negative score\r\n    int256 public playerOneScore;\r\n    int256 public playerTwoScore;\r\n    PlayerInfo player1;\r\n    PlayerInfo player2;\r\n    bool public player1_set;\r\n    bool public player2_set;\r\n/// @notice IDs of the players on the fantasy football site - necessary in order to check results and get player scores\r\n    uint256 playerID1;\r\n    uint256 playerID2;\r\n/// @notice Bool for emergency switch\r\n    bool private stopped = false;\r\n\r\n    struct PlayerInfo {\r\n        address payable playerAddress;\r\n        uint256 playerID;\r\n\r\n    }\r\n\r\n    mapping(address => PlayerInfo) public Players;\r\n\r\n/// @notice Modifier so that only me (the arbiter) will be able to input results and initiate withdrawal to the winning player's address.\r\n    modifier onlyArbiter() {\r\n        require(msg.sender == arbiter);\r\n        _;\r\n    }\r\n\r\n/// @notice Emergency switch function\r\n/// @dev Simple emergency switch function that only the arbiter controls and stops key functions from working if activated.\r\n    function toggleContractActive() public onlyArbiter {\r\n        stopped = !stopped;\r\n    }\r\n\r\n    modifier stopInEmergency {\r\n        require(!stopped);\r\n        _;\r\n    }\r\n\r\n/// @notice Contract constructor\r\n    constructor() public {\r\n        arbiter = msg.sender;\r\n        player1_set = false;\r\n        player2_set = false;\r\n    }\r\n\r\n/// @notice Receives the cryptocurrency of both players and logs their addresses and IDs\r\n/// @dev A check is in place to prevent further deposits after the second player\r\n/// @param _playerID The IDs of the two players of their fantasy football teams on the official site\r\n    function deposit(uint256 _playerID) public payable stopInEmergency {\r\n\r\n        if (player1_set && player2_set) {\r\n            revert();\r\n        }\r\n        if (player1_set) {\r\n            player2 = PlayerInfo(msg.sender, _playerID);\r\n            player2_set = true;\r\n        } else if (!player1_set) {\r\n            player1 = PlayerInfo(msg.sender, _playerID);\r\n            player1_set = true;\r\n        }\r\n    }\r\n\r\n/// @notice Checks who wins and pays out the ether, and then resets the game so that others can play\r\n/// @dev onlyArbiter and emergency switch modifiers are present\r\n    function payout() public payable onlyArbiter stopInEmergency {\r\n        uint256 payment = address(this).balance;\r\n\r\n        if (playerOneScore > playerTwoScore) {\r\n            player1.playerAddress.transfer(payment);\r\n        } else if (playerTwoScore > playerOneScore) {\r\n            player2.playerAddress.transfer(payment);\r\n        }\r\n        resetPlayers();\r\n    }\r\n\r\n/// @notice Sets the results and calls the payout function. An additional 1 point will be awarded if there is a draw (FantasyPL tiebreak rules apply).\r\n/// @dev onlyArbiter modifier is present.\r\n/// @param score_1 The final scores of the two players (Single gameweek/weekend game).\r\n/// @param score_2 The final scores of the two players (Single gameweek/weekend game).\r\n    function setResults(int256 score_1, int256 score_2) public onlyArbiter {\r\n        playerOneScore = score_1; //\r\n        playerTwoScore = score_2;\r\n        payout();\r\n    }\r\n\r\n/// @notice Resets the game when finished so others can play.\r\n    function resetPlayers() public onlyArbiter stopInEmergency {\r\n        player1_set = false;\r\n        player2_set = false;\r\n    }\r\n\r\n/// @notice Getter functions for player1_set and player2_set. Used to alert users in the UI of contract changes.\r\n/// @return true or false depending on whether there are currently players signed up for the game.\r\n    function getPlayer1Status() public view returns(bool) {\r\n        return player1_set;\r\n    }\r\n\r\n    function getPlayer2Status() public view returns(bool) {\r\n        return player2_set;\r\n    }\r\n\r\n/// @notice Used by the arbiter to read the playerIDs in order to check the results.\r\n/// @return The two playerIDs.\r\n    function getPlayer1ID() public view onlyArbiter returns(uint256) {\r\n        return player1.playerID;\r\n    }\r\n\r\n    function getPlayer2ID() public view onlyArbiter returns(uint256) {\r\n        return player2.playerID;\r\n    }\r\n\r\n/// @notice Testing the SafeMath library even though we don't need it for this first version of the dApp.\r\n    uint256 public safeMathTestTotal;\r\n\r\n/// @notice Testing the SafeMath library even though we don't need it for this first version of the dApp.\r\n/// @param var1 Two random numbers in order to test that the SafeMath library works properly\r\n/// @param var2 Two random numbers in order to test that the SafeMath library works properly\r\n    function testLibrary(uint256 var1, uint256 var2) public {\r\n        safeMathTestTotal = var1.add(var2);\r\n    }\r\n\r\n/// @notice Fallback function.\r\n/// @dev Stops random ether from being sent by not having \"payable\" modifier.\r\n    function() external { //\r\n        v = 5; // Just something random\r\n    }\r\n\r\n    uint v;\r\n\r\n}\r\n",
  "sourcePath": "D:/Programming/ConsenSys Academy/Final Project fpl/contracts/FPLEscrow.sol",
  "compiler": {
    "name": "solc",
    "version": "0.5.12+commit.7709ece9.Emscripten.clang"
  },
  "schemaVersion": "3.0.19",
  "updatedAt": "2020-01-30T18:27:21.300Z",
  "networkType": "ethereum",
  "devdoc": {
    "methods": {
      "deposit(uint256)": {
        "details": "A check is in place to prevent further deposits after the second player",
        "params": {
          "_playerID": "The IDs of the two players of their fantasy football teams on the official site"
        }
      },
      "getPlayer1ID()": {
        "return": "The two playerIDs."
      },
      "getPlayer1Status()": {
        "return": "true or false depending on whether there are currently players signed up for the game."
      },
      "payout()": {
        "details": "onlyArbiter and emergency switch modifiers are present"
      },
      "setResults(int256,int256)": {
        "details": "onlyArbiter modifier is present.",
        "params": {
          "score_1": "The final scores of the two players (Single gameweek/weekend game).",
          "score_2": "The final scores of the two players (Single gameweek/weekend game)."
        }
      },
      "testLibrary(uint256,uint256)": {
        "params": {
          "var1": "Two random numbers in order to test that the SafeMath library works properly",
          "var2": "Two random numbers in order to test that the SafeMath library works properly"
        }
      },
      "toggleContractActive()": {
        "details": "Simple emergency switch function that only the arbiter controls and stops key functions from working if activated."
      }
    }
  },
  "userdoc": {
    "methods": {
      "constructor": "Contract constructor",
      "deposit(uint256)": {
        "notice": "Receives the cryptocurrency of both players and logs their addresses and IDs"
      },
      "getPlayer1ID()": {
        "notice": "Used by the arbiter to read the playerIDs in order to check the results."
      },
      "getPlayer1Status()": {
        "notice": "Getter functions for player1_set and player2_set. Used to alert users in the UI of contract changes."
      },
      "payout()": {
        "notice": "Checks who wins and pays out the ether, and then resets the game so that others can play"
      },
      "resetPlayers()": {
        "notice": "Resets the game when finished so others can play."
      },
      "setResults(int256,int256)": {
        "notice": "Sets the results and calls the payout function. An additional 1 point will be awarded if there is a draw (FantasyPL tiebreak rules apply)."
      },
      "testLibrary(uint256,uint256)": {
        "notice": "Testing the SafeMath library even though we don't need it for this first version of the dApp."
      },
      "toggleContractActive()": {
        "notice": "Emergency switch function"
      }
    }
  }
}